{
  "_format": "hh-sol-artifact-1",
  "contractName": "WavePortal",
  "sourceName": "contracts/WavePortal.sol",
  "abi": [
    {
      "inputs": [],
      "stateMutability": "payable",
      "type": "constructor"
    },
    {
      "anonymous": false,
      "inputs": [
        {
          "indexed": true,
          "internalType": "address",
          "name": "from",
          "type": "address"
        },
        {
          "indexed": false,
          "internalType": "uint256",
          "name": "timestamp",
          "type": "uint256"
        },
        {
          "indexed": false,
          "internalType": "string",
          "name": "message",
          "type": "string"
        }
      ],
      "name": "NewWave",
      "type": "event"
    },
    {
      "inputs": [],
      "name": "getAllWaves",
      "outputs": [
        {
          "components": [
            {
              "internalType": "address",
              "name": "waver",
              "type": "address"
            },
            {
              "internalType": "string",
              "name": "message",
              "type": "string"
            },
            {
              "internalType": "uint256",
              "name": "timestamp",
              "type": "uint256"
            }
          ],
          "internalType": "struct WavePortal.Wave[]",
          "name": "",
          "type": "tuple[]"
        }
      ],
      "stateMutability": "view",
      "type": "function"
    },
    {
      "inputs": [],
      "name": "getTotalWaves",
      "outputs": [
        {
          "internalType": "uint256",
          "name": "",
          "type": "uint256"
        }
      ],
      "stateMutability": "view",
      "type": "function"
    },
    {
      "inputs": [
        {
          "internalType": "address",
          "name": "",
          "type": "address"
        }
      ],
      "name": "lastWaveAt",
      "outputs": [
        {
          "internalType": "uint256",
          "name": "",
          "type": "uint256"
        }
      ],
      "stateMutability": "view",
      "type": "function"
    },
    {
      "inputs": [
        {
          "internalType": "string",
          "name": "_message",
          "type": "string"
        }
      ],
      "name": "wave",
      "outputs": [],
      "stateMutability": "nonpayable",
      "type": "function"
    }
  ],
  "bytecode": "0x60806040526200004f6040518060400160405280601981526020017f57652068617665206265656e20636f6e737472756374656421000000000000008152506200007760201b620006461760201c565b606444426200005f9190620001c4565b6200006b919062000261565b60018190555062000308565b62000117816040516024016200008e919062000184565b6040516020818303038152906040527f41304fac000000000000000000000000000000000000000000000000000000007bffffffffffffffffffffffffffffffffffffffffffffffffffffffff19166020820180517bffffffffffffffffffffffffffffffffffffffffffffffffffffffff83818316178352505050506200011a60201b60201c565b50565b60008151905060006a636f6e736f6c652e6c6f679050602083016000808483855afa5050505050565b60006200015082620001a8565b6200015c8185620001b3565b93506200016e8185602086016200022b565b6200017981620002f7565b840191505092915050565b60006020820190508181036000830152620001a0818462000143565b905092915050565b600081519050919050565b600082825260208201905092915050565b6000620001d18262000221565b9150620001de8362000221565b9250827fffffffffffffffffffffffffffffffffffffffffffffffffffffffffffffffff0382111562000216576200021562000299565b5b828201905092915050565b6000819050919050565b60005b838110156200024b5780820151818401526020810190506200022e565b838111156200025b576000848401525b50505050565b60006200026e8262000221565b91506200027b8362000221565b9250826200028e576200028d620002c8565b5b828206905092915050565b7f4e487b7100000000000000000000000000000000000000000000000000000000600052601160045260246000fd5b7f4e487b7100000000000000000000000000000000000000000000000000000000600052601260045260246000fd5b6000601f19601f8301169050919050565b61117c80620003186000396000f3fe608060405234801561001057600080fd5b506004361061004c5760003560e01c8063449d46c0146100515780639a2cdc081461006d578063bd43a9081461008b578063cb199503146100a9575b600080fd5b61006b60048036038101906100669190610995565b6100d9565b005b6100756104d4565b6040516100829190610d0a565b60405180910390f35b6100936104dd565b6040516100a09190610c06565b60405180910390f35b6100c360048036038101906100be9190610968565b61062e565b6040516100d09190610d0a565b60405180910390f35b42610384600360003373ffffffffffffffffffffffffffffffffffffffff1673ffffffffffffffffffffffffffffffffffffffff168152602001908152602001600020546101279190610e1c565b10610167576040517f08c379a000000000000000000000000000000000000000000000000000000000815260040161015e90610cea565b60405180910390fd5b42600360003373ffffffffffffffffffffffffffffffffffffffff1673ffffffffffffffffffffffffffffffffffffffff1681526020019081526020016000208190555060016000808282546101bd9190610e1c565b925050819055506102036040518060400160405280600d81526020017f2573206861732077617665642100000000000000000000000000000000000000815250336106df565b600260405180606001604052803373ffffffffffffffffffffffffffffffffffffffff16815260200183815260200142815250908060018154018082558091505060019003906000526020600020906003020160009091909190915060008201518160000160006101000a81548173ffffffffffffffffffffffffffffffffffffffff021916908373ffffffffffffffffffffffffffffffffffffffff16021790555060208201518160010190805190602001906102c2929190610840565b50604082015181600201555050606460015442446102e09190610e1c565b6102ea9190610e1c565b6102f49190610f53565b60018190555061033b6040518060400160405280601681526020017f52616e646f6d20232067656e6572617465643a2025640000000000000000000081525060015461077b565b603260015411610481576103846040518060400160405280600781526020017f257320776f6e2100000000000000000000000000000000000000000000000000815250336106df565b6000655af3107a40009050478111156103d2576040517f08c379a00000000000000000000000000000000000000000000000000000000081526004016103c990610caa565b60405180910390fd5b60003373ffffffffffffffffffffffffffffffffffffffff16826040516103f890610bf1565b60006040518083038185875af1925050503d8060008114610435576040519150601f19603f3d011682016040523d82523d6000602084013e61043a565b606091505b505090508061047e576040517f08c379a000000000000000000000000000000000000000000000000000000000815260040161047590610cca565b60405180910390fd5b50505b3373ffffffffffffffffffffffffffffffffffffffff167f5f7e16dc676677766a70e9c5628aa6c54ddb8b6e5188e2ae1e1f17f1ffbea71642836040516104c9929190610d25565b60405180910390a250565b60008054905090565b60606002805480602002602001604051908101604052809291908181526020016000905b8282101561062557838290600052602060002090600302016040518060600160405290816000820160009054906101000a900473ffffffffffffffffffffffffffffffffffffffff1673ffffffffffffffffffffffffffffffffffffffff1673ffffffffffffffffffffffffffffffffffffffff16815260200160018201805461058a90610ef0565b80601f01602080910402602001604051908101604052809291908181526020018280546105b690610ef0565b80156106035780601f106105d857610100808354040283529160200191610603565b820191906000526020600020905b8154815290600101906020018083116105e657829003601f168201915b5050505050815260200160028201548152505081526020019060010190610501565b50505050905090565b60036020528060005260406000206000915090505481565b6106dc8160405160240161065a9190610c28565b6040516020818303038152906040527f41304fac000000000000000000000000000000000000000000000000000000007bffffffffffffffffffffffffffffffffffffffffffffffffffffffff19166020820180517bffffffffffffffffffffffffffffffffffffffffffffffffffffffff8381831617835250505050610817565b50565b61077782826040516024016106f5929190610c4a565b6040516020818303038152906040527f319af333000000000000000000000000000000000000000000000000000000007bffffffffffffffffffffffffffffffffffffffffffffffffffffffff19166020820180517bffffffffffffffffffffffffffffffffffffffffffffffffffffffff8381831617835250505050610817565b5050565b6108138282604051602401610791929190610c7a565b6040516020818303038152906040527f9710a9d0000000000000000000000000000000000000000000000000000000007bffffffffffffffffffffffffffffffffffffffffffffffffffffffff19166020820180517bffffffffffffffffffffffffffffffffffffffffffffffffffffffff8381831617835250505050610817565b5050565b60008151905060006a636f6e736f6c652e6c6f679050602083016000808483855afa5050505050565b82805461084c90610ef0565b90600052602060002090601f01602090048101928261086e57600085556108b5565b82601f1061088757805160ff19168380011785556108b5565b828001600101855582156108b5579182015b828111156108b4578251825591602001919060010190610899565b5b5090506108c291906108c6565b5090565b5b808211156108df5760008160009055506001016108c7565b5090565b60006108f66108f184610d7a565b610d55565b90508281526020810184848401111561091257610911611045565b5b61091d848285610eae565b509392505050565b6000813590506109348161112f565b92915050565b600082601f83011261094f5761094e611040565b5b813561095f8482602086016108e3565b91505092915050565b60006020828403121561097e5761097d61104f565b5b600061098c84828501610925565b91505092915050565b6000602082840312156109ab576109aa61104f565b5b600082013567ffffffffffffffff8111156109c9576109c861104a565b5b6109d58482850161093a565b91505092915050565b60006109ea8383610b83565b905092915050565b6109fb81610e72565b82525050565b610a0a81610e72565b82525050565b6000610a1b82610dbb565b610a258185610dde565b935083602082028501610a3785610dab565b8060005b85811015610a735784840389528151610a5485826109de565b9450610a5f83610dd1565b925060208a01995050600181019050610a3b565b50829750879550505050505092915050565b6000610a9082610dc6565b610a9a8185610dfa565b9350610aaa818560208601610ebd565b610ab381611054565b840191505092915050565b6000610ac982610dc6565b610ad38185610e0b565b9350610ae3818560208601610ebd565b610aec81611054565b840191505092915050565b6000610b04603483610e0b565b9150610b0f82611065565b604082019050919050565b6000610b27602783610e0b565b9150610b32826110b4565b604082019050919050565b6000610b4a600a83610e0b565b9150610b5582611103565b602082019050919050565b6000610b6d600083610def565b9150610b788261112c565b600082019050919050565b6000606083016000830151610b9b60008601826109f2565b5060208301518482036020860152610bb38282610a85565b9150506040830151610bc86040860182610bd3565b508091505092915050565b610bdc81610ea4565b82525050565b610beb81610ea4565b82525050565b6000610bfc82610b60565b9150819050919050565b60006020820190508181036000830152610c208184610a10565b905092915050565b60006020820190508181036000830152610c428184610abe565b905092915050565b60006040820190508181036000830152610c648185610abe565b9050610c736020830184610a01565b9392505050565b60006040820190508181036000830152610c948185610abe565b9050610ca36020830184610be2565b9392505050565b60006020820190508181036000830152610cc381610af7565b9050919050565b60006020820190508181036000830152610ce381610b1a565b9050919050565b60006020820190508181036000830152610d0381610b3d565b9050919050565b6000602082019050610d1f6000830184610be2565b92915050565b6000604082019050610d3a6000830185610be2565b8181036020830152610d4c8184610abe565b90509392505050565b6000610d5f610d70565b9050610d6b8282610f22565b919050565b6000604051905090565b600067ffffffffffffffff821115610d9557610d94611011565b5b610d9e82611054565b9050602081019050919050565b6000819050602082019050919050565b600081519050919050565b600081519050919050565b6000602082019050919050565b600082825260208201905092915050565b600081905092915050565b600082825260208201905092915050565b600082825260208201905092915050565b6000610e2782610ea4565b9150610e3283610ea4565b9250827fffffffffffffffffffffffffffffffffffffffffffffffffffffffffffffffff03821115610e6757610e66610f84565b5b828201905092915050565b6000610e7d82610e84565b9050919050565b600073ffffffffffffffffffffffffffffffffffffffff82169050919050565b6000819050919050565b82818337600083830152505050565b60005b83811015610edb578082015181840152602081019050610ec0565b83811115610eea576000848401525b50505050565b60006002820490506001821680610f0857607f821691505b60208210811415610f1c57610f1b610fe2565b5b50919050565b610f2b82611054565b810181811067ffffffffffffffff82111715610f4a57610f49611011565b5b80604052505050565b6000610f5e82610ea4565b9150610f6983610ea4565b925082610f7957610f78610fb3565b5b828206905092915050565b7f4e487b7100000000000000000000000000000000000000000000000000000000600052601160045260246000fd5b7f4e487b7100000000000000000000000000000000000000000000000000000000600052601260045260246000fd5b7f4e487b7100000000000000000000000000000000000000000000000000000000600052602260045260246000fd5b7f4e487b7100000000000000000000000000000000000000000000000000000000600052604160045260246000fd5b600080fd5b600080fd5b600080fd5b600080fd5b6000601f19601f8301169050919050565b7f547279696e6720746f207769746864726177206d6f7265206d6f6e657920746860008201527f616e2074686520636f6e7472616374206861732e000000000000000000000000602082015250565b7f4661696c656420746f207769746864726177206d6f6e65792066726f6d20636f60008201527f6e74726163742e00000000000000000000000000000000000000000000000000602082015250565b7f576169742035206d696e00000000000000000000000000000000000000000000600082015250565b50565b61113881610e72565b811461114357600080fd5b5056fea2646970667358221220fdd88cf728a7516b642bb9bc27aad2058af7114459919be7487dca4a687093a364736f6c63430008050033",
  "linkReferences": {},
  "deployedLinkReferences": {}
}